{
  "abi": [
    {
      "inputs": [
        {
          "internalType": "address",
          "name": "_nft",
          "type": "address"
        },
        {
          "internalType": "uint256",
          "name": "_number",
          "type": "uint256"
        }
      ],
      "stateMutability": "nonpayable",
      "type": "constructor"
    },
    {
      "inputs": [
        {
          "internalType": "uint256",
          "name": "_number",
          "type": "uint256"
        }
      ],
      "name": "changeNumber",
      "outputs": [],
      "stateMutability": "nonpayable",
      "type": "function"
    },
    {
      "inputs": [],
      "name": "nft",
      "outputs": [
        {
          "internalType": "contract NonFungibleTradingPositions",
          "name": "",
          "type": "address"
        }
      ],
      "stateMutability": "view",
      "type": "function"
    },
    {
      "inputs": [],
      "name": "number",
      "outputs": [
        {
          "internalType": "uint256",
          "name": "",
          "type": "uint256"
        }
      ],
      "stateMutability": "view",
      "type": "function"
    }
  ],
  "bytecode": {
    "object": "0x608060405234801561001057600080fd5b5060405161032a38038061032a83398101604081905261002f91610058565b600080546001600160a01b0319166001600160a01b039390931692909217909155600155610092565b6000806040838503121561006b57600080fd5b82516001600160a01b038116811461008257600080fd5b6020939093015192949293505050565b610289806100a16000396000f3fe608060405234801561001057600080fd5b50600436106100415760003560e01c806307391dd61461004657806347ccca021461005b5780638381f58a1461008b575b600080fd5b6100596100543660046101f1565b6100a2565b005b60005461006e906001600160a01b031681565b6040516001600160a01b0390911681526020015b60405180910390f35b61009460015481565b604051908152602001610082565b600054604051632c0d5f3d60e21b81523060048201526001600160a01b0390911690636352211e90829063b0357cf490602401602060405180830381865afa1580156100f2573d6000803e3d6000fd5b505050506040513d601f19601f82011682018060405250810190610116919061020a565b6040518263ffffffff1660e01b815260040161013491815260200190565b602060405180830381865afa158015610151573d6000803e3d6000fd5b505050506040513d601f19601f820116820180604052508101906101759190610223565b6001600160a01b0316336001600160a01b0316146101ec5760405162461bcd60e51b815260206004820152602a60248201527f4e6f6e46756e6769626c6554726164696e67506f736974696f6e733a206e6f746044820152691037333a1037bbb732b960b11b606482015260840160405180910390fd5b600155565b60006020828403121561020357600080fd5b5035919050565b60006020828403121561021c57600080fd5b5051919050565b60006020828403121561023557600080fd5b81516001600160a01b038116811461024c57600080fd5b939250505056fea2646970667358221220304de444c56d815f6140eee54984a75d3347d5cfe517313ee4ca82b6cda5017c64736f6c63430008110033",
    "linkReferences": {}
  },
  "methodIdentifiers": {
    "changeNumber(uint256)": "07391dd6",
    "nft()": "47ccca02",
    "number()": "8381f58a"
  },
  "id": 42
}