{
  "abi": [
    {
      "inputs": [
        {
          "internalType": "address",
          "name": "_implementation",
          "type": "address"
        }
      ],
      "stateMutability": "nonpayable",
      "type": "constructor"
    },
    {
      "anonymous": false,
      "inputs": [
        {
          "indexed": true,
          "internalType": "address",
          "name": "owner",
          "type": "address"
        },
        {
          "indexed": true,
          "internalType": "address",
          "name": "approved",
          "type": "address"
        },
        {
          "indexed": true,
          "internalType": "uint256",
          "name": "tokenId",
          "type": "uint256"
        }
      ],
      "name": "Approval",
      "type": "event"
    },
    {
      "anonymous": false,
      "inputs": [
        {
          "indexed": true,
          "internalType": "address",
          "name": "owner",
          "type": "address"
        },
        {
          "indexed": true,
          "internalType": "address",
          "name": "operator",
          "type": "address"
        },
        {
          "indexed": false,
          "internalType": "bool",
          "name": "approved",
          "type": "bool"
        }
      ],
      "name": "ApprovalForAll",
      "type": "event"
    },
    {
      "anonymous": false,
      "inputs": [
        {
          "indexed": true,
          "internalType": "address",
          "name": "from",
          "type": "address"
        },
        {
          "indexed": true,
          "internalType": "address",
          "name": "to",
          "type": "address"
        },
        {
          "indexed": true,
          "internalType": "uint256",
          "name": "tokenId",
          "type": "uint256"
        }
      ],
      "name": "Transfer",
      "type": "event"
    },
    {
      "inputs": [
        {
          "internalType": "address",
          "name": "to",
          "type": "address"
        },
        {
          "internalType": "uint256",
          "name": "tokenId",
          "type": "uint256"
        }
      ],
      "name": "approve",
      "outputs": [],
      "stateMutability": "nonpayable",
      "type": "function"
    },
    {
      "inputs": [
        {
          "internalType": "address",
          "name": "owner",
          "type": "address"
        }
      ],
      "name": "balanceOf",
      "outputs": [
        {
          "internalType": "uint256",
          "name": "",
          "type": "uint256"
        }
      ],
      "stateMutability": "view",
      "type": "function"
    },
    {
      "inputs": [
        {
          "internalType": "address",
          "name": "",
          "type": "address"
        }
      ],
      "name": "contractToId",
      "outputs": [
        {
          "internalType": "uint256",
          "name": "",
          "type": "uint256"
        }
      ],
      "stateMutability": "view",
      "type": "function"
    },
    {
      "inputs": [],
      "name": "currentImplementation",
      "outputs": [
        {
          "internalType": "address",
          "name": "",
          "type": "address"
        }
      ],
      "stateMutability": "view",
      "type": "function"
    },
    {
      "inputs": [
        {
          "internalType": "uint256",
          "name": "_number",
          "type": "uint256"
        }
      ],
      "name": "deployAndMint",
      "outputs": [
        {
          "internalType": "address",
          "name": "",
          "type": "address"
        },
        {
          "internalType": "uint256",
          "name": "",
          "type": "uint256"
        }
      ],
      "stateMutability": "nonpayable",
      "type": "function"
    },
    {
      "inputs": [
        {
          "internalType": "uint256",
          "name": "number",
          "type": "uint256"
        }
      ],
      "name": "deployProxy",
      "outputs": [
        {
          "internalType": "address",
          "name": "",
          "type": "address"
        }
      ],
      "stateMutability": "nonpayable",
      "type": "function"
    },
    {
      "inputs": [
        {
          "internalType": "uint256",
          "name": "tokenId",
          "type": "uint256"
        }
      ],
      "name": "getApproved",
      "outputs": [
        {
          "internalType": "address",
          "name": "",
          "type": "address"
        }
      ],
      "stateMutability": "view",
      "type": "function"
    },
    {
      "inputs": [
        {
          "internalType": "uint256",
          "name": "",
          "type": "uint256"
        }
      ],
      "name": "idToMetadata",
      "outputs": [
        {
          "internalType": "address",
          "name": "instance",
          "type": "address"
        },
        {
          "internalType": "uint256",
          "name": "number",
          "type": "uint256"
        }
      ],
      "stateMutability": "view",
      "type": "function"
    },
    {
      "inputs": [
        {
          "internalType": "address",
          "name": "owner",
          "type": "address"
        },
        {
          "internalType": "address",
          "name": "operator",
          "type": "address"
        }
      ],
      "name": "isApprovedForAll",
      "outputs": [
        {
          "internalType": "bool",
          "name": "",
          "type": "bool"
        }
      ],
      "stateMutability": "view",
      "type": "function"
    },
    {
      "inputs": [],
      "name": "name",
      "outputs": [
        {
          "internalType": "string",
          "name": "",
          "type": "string"
        }
      ],
      "stateMutability": "view",
      "type": "function"
    },
    {
      "inputs": [
        {
          "internalType": "uint256",
          "name": "tokenId",
          "type": "uint256"
        }
      ],
      "name": "ownerOf",
      "outputs": [
        {
          "internalType": "address",
          "name": "",
          "type": "address"
        }
      ],
      "stateMutability": "view",
      "type": "function"
    },
    {
      "inputs": [
        {
          "internalType": "address",
          "name": "from",
          "type": "address"
        },
        {
          "internalType": "address",
          "name": "to",
          "type": "address"
        },
        {
          "internalType": "uint256",
          "name": "tokenId",
          "type": "uint256"
        }
      ],
      "name": "safeTransferFrom",
      "outputs": [],
      "stateMutability": "nonpayable",
      "type": "function"
    },
    {
      "inputs": [
        {
          "internalType": "address",
          "name": "from",
          "type": "address"
        },
        {
          "internalType": "address",
          "name": "to",
          "type": "address"
        },
        {
          "internalType": "uint256",
          "name": "tokenId",
          "type": "uint256"
        },
        {
          "internalType": "bytes",
          "name": "data",
          "type": "bytes"
        }
      ],
      "name": "safeTransferFrom",
      "outputs": [],
      "stateMutability": "nonpayable",
      "type": "function"
    },
    {
      "inputs": [
        {
          "internalType": "address",
          "name": "operator",
          "type": "address"
        },
        {
          "internalType": "bool",
          "name": "approved",
          "type": "bool"
        }
      ],
      "name": "setApprovalForAll",
      "outputs": [],
      "stateMutability": "nonpayable",
      "type": "function"
    },
    {
      "inputs": [
        {
          "internalType": "bytes4",
          "name": "interfaceId",
          "type": "bytes4"
        }
      ],
      "name": "supportsInterface",
      "outputs": [
        {
          "internalType": "bool",
          "name": "",
          "type": "bool"
        }
      ],
      "stateMutability": "view",
      "type": "function"
    },
    {
      "inputs": [],
      "name": "symbol",
      "outputs": [
        {
          "internalType": "string",
          "name": "",
          "type": "string"
        }
      ],
      "stateMutability": "view",
      "type": "function"
    },
    {
      "inputs": [
        {
          "internalType": "uint256",
          "name": "index",
          "type": "uint256"
        }
      ],
      "name": "tokenByIndex",
      "outputs": [
        {
          "internalType": "uint256",
          "name": "",
          "type": "uint256"
        }
      ],
      "stateMutability": "view",
      "type": "function"
    },
    {
      "inputs": [
        {
          "internalType": "address",
          "name": "owner",
          "type": "address"
        },
        {
          "internalType": "uint256",
          "name": "index",
          "type": "uint256"
        }
      ],
      "name": "tokenOfOwnerByIndex",
      "outputs": [
        {
          "internalType": "uint256",
          "name": "",
          "type": "uint256"
        }
      ],
      "stateMutability": "view",
      "type": "function"
    },
    {
      "inputs": [
        {
          "internalType": "uint256",
          "name": "tokenId",
          "type": "uint256"
        }
      ],
      "name": "tokenURI",
      "outputs": [
        {
          "internalType": "string",
          "name": "",
          "type": "string"
        }
      ],
      "stateMutability": "view",
      "type": "function"
    },
    {
      "inputs": [],
      "name": "totalSupply",
      "outputs": [
        {
          "internalType": "uint256",
          "name": "",
          "type": "uint256"
        }
      ],
      "stateMutability": "view",
      "type": "function"
    },
    {
      "inputs": [
        {
          "internalType": "address",
          "name": "from",
          "type": "address"
        },
        {
          "internalType": "address",
          "name": "to",
          "type": "address"
        },
        {
          "internalType": "uint256",
          "name": "tokenId",
          "type": "uint256"
        }
      ],
      "name": "transferFrom",
      "outputs": [],
      "stateMutability": "nonpayable",
      "type": "function"
    }
  ],
  "bytecode": {
    "object": "0x60806040523480156200001157600080fd5b5060405162002927380380620029278339810160408190526200003491620000d1565b6040518060400160405280601681526020017f506561722054726164696e6720506f736974696f6e7300000000000000000000815250604051806040016040528060048152602001632822a0a960e11b8152508160009081620000989190620001a8565b506001620000a78282620001a8565b5050600a80546001600160a01b0319166001600160a01b0393909316929092179091555062000274565b600060208284031215620000e457600080fd5b81516001600160a01b0381168114620000fc57600080fd5b9392505050565b634e487b7160e01b600052604160045260246000fd5b600181811c908216806200012e57607f821691505b6020821081036200014f57634e487b7160e01b600052602260045260246000fd5b50919050565b601f821115620001a357600081815260208120601f850160051c810160208610156200017e5750805b601f850160051c820191505b818110156200019f578281556001016200018a565b5050505b505050565b81516001600160401b03811115620001c457620001c462000103565b620001dc81620001d5845462000119565b8462000155565b602080601f831160018114620002145760008415620001fb5750858301515b600019600386901b1c1916600185901b1785556200019f565b600085815260208120601f198616915b82811015620002455788860151825594840194600190910190840162000224565b5085821015620002645787850151600019600388901b60f8161c191681555b5050505050600190811b01905550565b6126a380620002846000396000f3fe60806040523480156200001157600080fd5b5060043610620001515760003560e01c80636352211e11620000c7578063b0357cf41162000086578063b0357cf414620002f0578063b88d4fde1462000313578063c87b56dd146200032a578063d8bd5c291462000341578063e985e9c51462000355578063f307101a146200039457600080fd5b80636352211e146200026a57806370a0823114620002815780637aa339cb146200029857806395d89b4114620002cf578063a22cb46514620002d957600080fd5b806323b872dd116200011457806323b872dd14620001f75780632f745c59146200020e5780633dbf8864146200022557806342842e0e146200023c5780634f6ccce7146200025357600080fd5b806301ffc9a7146200015657806306fdde031462000182578063081812fc146200019b578063095ea7b314620001cb57806318160ddd14620001e4575b600080fd5b6200016d6200016736600462001738565b620003ca565b60405190151581526020015b60405180910390f35b6200018c620003f8565b604051620001799190620017ac565b620001b2620001ac366004620017c1565b62000492565b6040516001600160a01b03909116815260200162000179565b620001e2620001dc366004620017f8565b620004bb565b005b6008545b60405190815260200162000179565b620001e26200020836600462001825565b620005df565b620001e86200021f366004620017f8565b62000617565b620001b262000236366004620017c1565b620006b1565b620001e26200024d36600462001825565b6200077f565b620001e862000264366004620017c1565b6200079c565b620001b26200027b366004620017c1565b62000835565b620001e86200029236600462001866565b62000897565b620002af620002a9366004620017c1565b6200091f565b604080516001600160a01b03909316835260208301919091520162000179565b6200018c620009f2565b620001e2620002ea36600462001884565b62000a03565b620001e86200030136600462001866565b600b6020526000908152604090205481565b620001e262000324366004620018da565b62000a14565b6200018c6200033b366004620017c1565b62000a53565b600a54620001b2906001600160a01b031681565b6200016d62000366366004620019c4565b6001600160a01b03918216600090815260056020908152604080832093909416825291909152205460ff1690565b620002af620003a5366004620017c1565b600c60205260009081526040902080546001909101546001600160a01b039091169082565b60006001600160e01b0319821663780e9d6360e01b1480620003f25750620003f28262000ad0565b92915050565b6060600080546200040990620019fc565b80601f01602080910402602001604051908101604052809291908181526020018280546200043790620019fc565b8015620004885780601f106200045c5761010080835404028352916020019162000488565b820191906000526020600020905b8154815290600101906020018083116200046a57829003601f168201915b5050505050905090565b60006200049f8262000b23565b506000908152600460205260409020546001600160a01b031690565b6000620004c88262000835565b9050806001600160a01b0316836001600160a01b0316036200053b5760405162461bcd60e51b815260206004820152602160248201527f4552433732313a20617070726f76616c20746f2063757272656e74206f776e656044820152603960f91b60648201526084015b60405180910390fd5b336001600160a01b03821614806200055a57506200055a813362000366565b620005ce5760405162461bcd60e51b815260206004820152603d60248201527f4552433732313a20617070726f76652063616c6c6572206973206e6f7420746f60448201527f6b656e206f776e6572206f7220617070726f76656420666f7220616c6c000000606482015260840162000532565b620005da838362000b87565b505050565b620005eb338262000bf7565b6200060a5760405162461bcd60e51b8152600401620005329062001a38565b620005da83838362000c7c565b6000620006248362000897565b8210620006885760405162461bcd60e51b815260206004820152602b60248201527f455243373231456e756d657261626c653a206f776e657220696e646578206f7560448201526a74206f6620626f756e647360a81b606482015260840162000532565b506001600160a01b03919091166000908152600660209081526040808320938352929052205490565b600a5460405160009182916001600160a01b0390911690620006d39062001705565b6001600160a01b039091168152604060208201819052600090820152606001604051809103906000f0801580156200070f573d6000803e3d6000fd5b5060405163da35a26f60e01b81526004810185905233602482015290915081906001600160a01b0382169063da35a26f90604401600060405180830381600087803b1580156200075e57600080fd5b505af115801562000773573d6000803e3d6000fd5b50939695505050505050565b620005da8383836040518060200160405280600081525062000a14565b6000620007a860085490565b82106200080d5760405162461bcd60e51b815260206004820152602c60248201527f455243373231456e756d657261626c653a20676c6f62616c20696e646578206f60448201526b7574206f6620626f756e647360a01b606482015260840162000532565b6008828154811062000823576200082362001a85565b90600052602060002001549050919050565b6000818152600260205260408120546001600160a01b031680620003f25760405162461bcd60e51b8152602060048201526018602482015277115490cdcc8c4e881a5b9d985b1a59081d1bdad95b88125160421b604482015260640162000532565b60006001600160a01b038216620009035760405162461bcd60e51b815260206004820152602960248201527f4552433732313a2061646472657373207a65726f206973206e6f7420612076616044820152683634b21037bbb732b960b91b606482015260840162000532565b506001600160a01b031660009081526003602052604090205490565b60008060003084604051620009349062001713565b6001600160a01b0390921682526020820152604001604051809103906000f08015801562000966573d6000803e3d6000fd5b50905060006200097560085490565b6200098290600162001ab1565b6001600160a01b038381166000818152600b60209081526040808320869055805180820182529384528382018b8152868452600c909252909120915182546001600160a01b031916931692909217815590516001909101559050620009e8338262000dfb565b9094909350915050565b6060600180546200040990620019fc565b62000a1033838362000e17565b5050565b62000a20338362000bf7565b62000a3f5760405162461bcd60e51b8152600401620005329062001a38565b62000a4d8484848462000ee7565b50505050565b606062000a608262000b23565b600062000a7860408051602081019091526000815290565b9050600081511162000a9a576040518060200160405280600081525062000ac9565b8062000aa68462000f21565b60405160200162000ab992919062001ac7565b6040516020818303038152906040525b9392505050565b60006001600160e01b031982166380ac58cd60e01b148062000b0257506001600160e01b03198216635b5e139f60e01b145b80620003f257506301ffc9a760e01b6001600160e01b0319831614620003f2565b6000818152600260205260409020546001600160a01b031662000b845760405162461bcd60e51b8152602060048201526018602482015277115490cdcc8c4e881a5b9d985b1a59081d1bdad95b88125160421b604482015260640162000532565b50565b600081815260046020526040902080546001600160a01b0319166001600160a01b038416908117909155819062000bbe8262000835565b6001600160a01b03167f8c5be1e5ebec7d5bd14f71427d1e84f3dd0314c0f7b2291e5b200ac8c7c3b92560405160405180910390a45050565b60008062000c058362000835565b9050806001600160a01b0316846001600160a01b0316148062000c4d57506001600160a01b0380821660009081526005602090815260408083209388168352929052205460ff165b8062000c745750836001600160a01b031662000c698462000492565b6001600160a01b0316145b949350505050565b826001600160a01b031662000c918262000835565b6001600160a01b03161462000cba5760405162461bcd60e51b8152600401620005329062001afa565b6001600160a01b03821662000d1e5760405162461bcd60e51b8152602060048201526024808201527f4552433732313a207472616e7366657220746f20746865207a65726f206164646044820152637265737360e01b606482015260840162000532565b62000d2d838383600162000fbb565b826001600160a01b031662000d428262000835565b6001600160a01b03161462000d6b5760405162461bcd60e51b8152600401620005329062001afa565b600081815260046020908152604080832080546001600160a01b03199081169091556001600160a01b0387811680865260038552838620805460001901905590871680865283862080546001019055868652600290945282852080549092168417909155905184937fddf252ad1be2c89b69c2b068fc378daa952ba7f163c4a11628f55a4df523b3ef91a4505050565b62000a108282604051806020016040528060008152506200110c565b816001600160a01b0316836001600160a01b03160362000e7a5760405162461bcd60e51b815260206004820152601960248201527f4552433732313a20617070726f766520746f2063616c6c657200000000000000604482015260640162000532565b6001600160a01b03838116600081815260056020908152604080832094871680845294825291829020805460ff191686151590811790915591519182527f17307eab39ab6107e8899845ad3d59bd9653f200f220920489ca2b5937696c31910160405180910390a3505050565b62000ef484848462000c7c565b62000f028484848462001146565b62000a4d5760405162461bcd60e51b8152600401620005329062001b3f565b6060600062000f308362001254565b600101905060008167ffffffffffffffff81111562000f535762000f53620018c4565b6040519080825280601f01601f19166020018201604052801562000f7e576020820181803683370190505b5090508181016020015b600019016f181899199a1a9b1b9c1cb0b131b232b360811b600a86061a8153600a850494508462000f8857509392505050565b62000fc98484848462001333565b60018111156200103a5760405162461bcd60e51b815260206004820152603560248201527f455243373231456e756d657261626c653a20636f6e7365637574697665207472604482015274185b9cd9995c9cc81b9bdd081cdd5c1c1bdc9d1959605a1b606482015260840162000532565b816001600160a01b03851662001099576200109381600880546000838152600960205260408120829055600182018355919091527ff3f7a9fe364faab93b216da50a3214154f22a0a2b415b23a84c8169e8b636ee30155565b620010bf565b836001600160a01b0316856001600160a01b031614620010bf57620010bf8582620013c2565b6001600160a01b038416620010df57620010d98162001464565b62001105565b846001600160a01b0316846001600160a01b03161462001105576200110584826200151e565b5050505050565b62001118838362001564565b62001127600084848462001146565b620005da5760405162461bcd60e51b8152600401620005329062001b3f565b60006001600160a01b0384163b156200124957604051630a85bd0160e11b81526001600160a01b0385169063150b7a02906200118d90339089908890889060040162001b91565b6020604051808303816000875af1925050508015620011cb575060408051601f3d908101601f19168201909252620011c89181019062001bd0565b60015b6200122e573d808015620011fc576040519150601f19603f3d011682016040523d82523d6000602084013e62001201565b606091505b508051600003620012265760405162461bcd60e51b8152600401620005329062001b3f565b805181602001fd5b6001600160e01b031916630a85bd0160e11b14905062000c74565b506001949350505050565b60008072184f03e93ff9f4daa797ed6e38ed64bf6a1f0160401b8310620012945772184f03e93ff9f4daa797ed6e38ed64bf6a1f0160401b830492506040015b6d04ee2d6d415b85acef81000000008310620012c1576d04ee2d6d415b85acef8100000000830492506020015b662386f26fc100008310620012e057662386f26fc10000830492506010015b6305f5e1008310620012f9576305f5e100830492506008015b61271083106200130e57612710830492506004015b6064831062001321576064830492506002015b600a8310620003f25760010192915050565b600181111562000a4d576001600160a01b038416156200137d576001600160a01b038416600090815260036020526040812080548392906200137790849062001bf0565b90915550505b6001600160a01b0383161562000a4d576001600160a01b03831660009081526003602052604081208054839290620013b790849062001ab1565b909155505050505050565b60006001620013d18462000897565b620013dd919062001bf0565b60008381526007602052604090205490915080821462001431576001600160a01b03841660009081526006602090815260408083208584528252808320548484528184208190558352600790915290208190555b5060009182526007602090815260408084208490556001600160a01b039094168352600681528383209183525290812055565b600854600090620014789060019062001bf0565b60008381526009602052604081205460088054939450909284908110620014a357620014a362001a85565b906000526020600020015490508060088381548110620014c757620014c762001a85565b600091825260208083209091019290925582815260099091526040808220849055858252812055600880548062001502576200150262001c06565b6001900381819060005260206000200160009055905550505050565b60006200152b8362000897565b6001600160a01b039093166000908152600660209081526040808320868452825280832085905593825260079052919091209190915550565b6001600160a01b038216620015bc5760405162461bcd60e51b815260206004820181905260248201527f4552433732313a206d696e7420746f20746865207a65726f2061646472657373604482015260640162000532565b6000818152600260205260409020546001600160a01b031615620016235760405162461bcd60e51b815260206004820152601c60248201527f4552433732313a20746f6b656e20616c7265616479206d696e74656400000000604482015260640162000532565b6200163360008383600162000fbb565b6000818152600260205260409020546001600160a01b0316156200169a5760405162461bcd60e51b815260206004820152601c60248201527f4552433732313a20746f6b656e20616c7265616479206d696e74656400000000604482015260640162000532565b6001600160a01b038216600081815260036020908152604080832080546001019055848352600290915280822080546001600160a01b0319168417905551839291907fddf252ad1be2c89b69c2b068fc378daa952ba7f163c4a11628f55a4df523b3ef908290a45050565b6107278062001c1d83390190565b61032a806200234483390190565b6001600160e01b03198116811462000b8457600080fd5b6000602082840312156200174b57600080fd5b813562000ac98162001721565b60005b83811015620017755781810151838201526020016200175b565b50506000910152565b600081518084526200179881602086016020860162001758565b601f01601f19169290920160200192915050565b60208152600062000ac960208301846200177e565b600060208284031215620017d457600080fd5b5035919050565b80356001600160a01b0381168114620017f357600080fd5b919050565b600080604083850312156200180c57600080fd5b6200181783620017db565b946020939093013593505050565b6000806000606084860312156200183b57600080fd5b6200184684620017db565b92506200185660208501620017db565b9150604084013590509250925092565b6000602082840312156200187957600080fd5b62000ac982620017db565b600080604083850312156200189857600080fd5b620018a383620017db565b915060208301358015158114620018b957600080fd5b809150509250929050565b634e487b7160e01b600052604160045260246000fd5b60008060008060808587031215620018f157600080fd5b620018fc85620017db565b93506200190c60208601620017db565b925060408501359150606085013567ffffffffffffffff808211156200193157600080fd5b818701915087601f8301126200194657600080fd5b8135818111156200195b576200195b620018c4565b604051601f8201601f19908116603f01168101908382118183101715620019865762001986620018c4565b816040528281528a6020848701011115620019a057600080fd5b82602086016020830137600060208483010152809550505050505092959194509250565b60008060408385031215620019d857600080fd5b620019e383620017db565b9150620019f360208401620017db565b90509250929050565b600181811c9082168062001a1157607f821691505b60208210810362001a3257634e487b7160e01b600052602260045260246000fd5b50919050565b6020808252602d908201527f4552433732313a2063616c6c6572206973206e6f7420746f6b656e206f776e6560408201526c1c881bdc88185c1c1c9bdd9959609a1b606082015260800190565b634e487b7160e01b600052603260045260246000fd5b634e487b7160e01b600052601160045260246000fd5b80820180821115620003f257620003f262001a9b565b6000835162001adb81846020880162001758565b83519083019062001af181836020880162001758565b01949350505050565b60208082526025908201527f4552433732313a207472616e736665722066726f6d20696e636f72726563742060408201526437bbb732b960d91b606082015260800190565b60208082526032908201527f4552433732313a207472616e7366657220746f206e6f6e20455243373231526560408201527131b2b4bb32b91034b6b83632b6b2b73a32b960711b606082015260800190565b6001600160a01b038581168252841660208201526040810183905260806060820181905260009062001bc6908301846200177e565b9695505050505050565b60006020828403121562001be357600080fd5b815162000ac98162001721565b81810381811115620003f257620003f262001a9b565b634e487b7160e01b600052603160045260246000fdfe608060405260405161072738038061072783398101604081905261002291610319565b61002e82826000610035565b5050610436565b61003e8361006b565b60008251118061004b5750805b156100665761006483836100ab60201b6100291760201c565b505b505050565b610074816100d7565b6040516001600160a01b038216907fbc7cd75a20ee27fd9adebab32041f755214dbc6bffa90cc0225b39da2e5c2d3b90600090a250565b60606100d08383604051806060016040528060278152602001610700602791396101a9565b9392505050565b6100ea8161022260201b6100551760201c565b6101515760405162461bcd60e51b815260206004820152602d60248201527f455243313936373a206e657720696d706c656d656e746174696f6e206973206e60448201526c1bdd08184818dbdb9d1c9858dd609a1b60648201526084015b60405180910390fd5b806101887f360894a13ba1a3210667c828492db98dca3e2076cc3735a920a3ca505d382bbc60001b61023160201b6100641760201c565b80546001600160a01b0319166001600160a01b039290921691909117905550565b6060600080856001600160a01b0316856040516101c691906103e7565b600060405180830381855af49150503d8060008114610201576040519150601f19603f3d011682016040523d82523d6000602084013e610206565b606091505b50909250905061021886838387610234565b9695505050505050565b6001600160a01b03163b151590565b90565b606083156102a357825160000361029c576001600160a01b0385163b61029c5760405162461bcd60e51b815260206004820152601d60248201527f416464726573733a2063616c6c20746f206e6f6e2d636f6e74726163740000006044820152606401610148565b50816102ad565b6102ad83836102b5565b949350505050565b8151156102c55781518083602001fd5b8060405162461bcd60e51b81526004016101489190610403565b634e487b7160e01b600052604160045260246000fd5b60005b838110156103105781810151838201526020016102f8565b50506000910152565b6000806040838503121561032c57600080fd5b82516001600160a01b038116811461034357600080fd5b60208401519092506001600160401b038082111561036057600080fd5b818501915085601f83011261037457600080fd5b815181811115610386576103866102df565b604051601f8201601f19908116603f011681019083821181831017156103ae576103ae6102df565b816040528281528860208487010111156103c757600080fd5b6103d88360208301602088016102f5565b80955050505050509250929050565b600082516103f98184602087016102f5565b9190910192915050565b60208152600082518060208401526104228160408501602087016102f5565b601f01601f19169190910160400192915050565b6102bb806104456000396000f3fe60806040523661001357610011610017565b005b6100115b610027610022610067565b61009f565b565b606061004e838360405180606001604052806027815260200161025f602791396100c3565b9392505050565b6001600160a01b03163b151590565b90565b600061009a7f360894a13ba1a3210667c828492db98dca3e2076cc3735a920a3ca505d382bbc546001600160a01b031690565b905090565b3660008037600080366000845af43d6000803e8080156100be573d6000f35b3d6000fd5b6060600080856001600160a01b0316856040516100e0919061020f565b600060405180830381855af49150503d806000811461011b576040519150601f19603f3d011682016040523d82523d6000602084013e610120565b606091505b50915091506101318683838761013b565b9695505050505050565b606083156101af5782516000036101a8576001600160a01b0385163b6101a85760405162461bcd60e51b815260206004820152601d60248201527f416464726573733a2063616c6c20746f206e6f6e2d636f6e747261637400000060448201526064015b60405180910390fd5b50816101b9565b6101b983836101c1565b949350505050565b8151156101d15781518083602001fd5b8060405162461bcd60e51b815260040161019f919061022b565b60005b838110156102065781810151838201526020016101ee565b50506000910152565b600082516102218184602087016101eb565b9190910192915050565b602081526000825180602084015261024a8160408501602087016101eb565b601f01601f1916919091016040019291505056fe416464726573733a206c6f772d6c6576656c2064656c65676174652063616c6c206661696c6564a26469706673582212201c5b6515f8e8f4e4fc4bb6c6996ac5278124a01c324fbf176fc48fb0ff6a608264736f6c63430008110033416464726573733a206c6f772d6c6576656c2064656c65676174652063616c6c206661696c6564608060405234801561001057600080fd5b5060405161032a38038061032a83398101604081905261002f91610058565b600080546001600160a01b0319166001600160a01b039390931692909217909155600155610092565b6000806040838503121561006b57600080fd5b82516001600160a01b038116811461008257600080fd5b6020939093015192949293505050565b610289806100a16000396000f3fe608060405234801561001057600080fd5b50600436106100415760003560e01c806307391dd61461004657806347ccca021461005b5780638381f58a1461008b575b600080fd5b6100596100543660046101f1565b6100a2565b005b60005461006e906001600160a01b031681565b6040516001600160a01b0390911681526020015b60405180910390f35b61009460015481565b604051908152602001610082565b600054604051632c0d5f3d60e21b81523060048201526001600160a01b0390911690636352211e90829063b0357cf490602401602060405180830381865afa1580156100f2573d6000803e3d6000fd5b505050506040513d601f19601f82011682018060405250810190610116919061020a565b6040518263ffffffff1660e01b815260040161013491815260200190565b602060405180830381865afa158015610151573d6000803e3d6000fd5b505050506040513d601f19601f820116820180604052508101906101759190610223565b6001600160a01b0316336001600160a01b0316146101ec5760405162461bcd60e51b815260206004820152602a60248201527f4e6f6e46756e6769626c6554726164696e67506f736974696f6e733a206e6f746044820152691037333a1037bbb732b960b11b606482015260840160405180910390fd5b600155565b60006020828403121561020357600080fd5b5035919050565b60006020828403121561021c57600080fd5b5051919050565b60006020828403121561023557600080fd5b81516001600160a01b038116811461024c57600080fd5b939250505056fea2646970667358221220304de444c56d815f6140eee54984a75d3347d5cfe517313ee4ca82b6cda5017c64736f6c63430008110033a26469706673582212203e476d140a0f220323faa33872d938bdc20747627f86420f1f9b83500f1b27cc64736f6c63430008110033",
    "linkReferences": {}
  },
  "methodIdentifiers": {
    "approve(address,uint256)": "095ea7b3",
    "balanceOf(address)": "70a08231",
    "contractToId(address)": "b0357cf4",
    "currentImplementation()": "d8bd5c29",
    "deployAndMint(uint256)": "7aa339cb",
    "deployProxy(uint256)": "3dbf8864",
    "getApproved(uint256)": "081812fc",
    "idToMetadata(uint256)": "f307101a",
    "isApprovedForAll(address,address)": "e985e9c5",
    "name()": "06fdde03",
    "ownerOf(uint256)": "6352211e",
    "safeTransferFrom(address,address,uint256)": "42842e0e",
    "safeTransferFrom(address,address,uint256,bytes)": "b88d4fde",
    "setApprovalForAll(address,bool)": "a22cb465",
    "supportsInterface(bytes4)": "01ffc9a7",
    "symbol()": "95d89b41",
    "tokenByIndex(uint256)": "4f6ccce7",
    "tokenOfOwnerByIndex(address,uint256)": "2f745c59",
    "tokenURI(uint256)": "c87b56dd",
    "totalSupply()": "18160ddd",
    "transferFrom(address,address,uint256)": "23b872dd"
  },
  "id": 42
}