{
  "abi": [
    {
      "inputs": [],
      "name": "creator",
      "outputs": [
        {
          "internalType": "address",
          "name": "",
          "type": "address"
        }
      ],
      "stateMutability": "view",
      "type": "function"
    },
    {
      "inputs": [],
      "name": "decrement",
      "outputs": [],
      "stateMutability": "nonpayable",
      "type": "function"
    },
    {
      "inputs": [],
      "name": "number",
      "outputs": [
        {
          "internalType": "uint256",
          "name": "",
          "type": "uint256"
        }
      ],
      "stateMutability": "view",
      "type": "function"
    }
  ],
  "bytecode": {
    "object": "0x608060405234801561001057600080fd5b50610169806100206000396000f3fe608060405234801561001057600080fd5b50600436106100415760003560e01c806302d05d3f146100465780632baeceb7146100765780638381f58a14610080575b600080fd5b600154610059906001600160a01b031681565b6040516001600160a01b0390911681526020015b60405180910390f35b61007e610097565b005b61008960005481565b60405190815260200161006d565b60008054116100f85760405162461bcd60e51b815260206004820152602360248201527f4c6f676963496d706c656d656e746174696f6e3a206e756d626572206973207a60448201526265726f60e81b606482015260840160405180910390fd5b6000805490806101078361010e565b9190505550565b60008161012b57634e487b7160e01b600052601160045260246000fd5b50600019019056fea264697066735822122069b0a92bf12323dea3f3b10c04d25de7fe0f9ddf717c60a2977c3f41a978fd3364736f6c63430008110033",
    "linkReferences": {}
  },
  "methodIdentifiers": {
    "creator()": "02d05d3f",
    "decrement()": "2baeceb7",
    "number()": "8381f58a"
  },
  "id": 41
}