{
  "abi": [
    {
      "inputs": [],
      "name": "USDC",
      "outputs": [
        {
          "internalType": "address",
          "name": "",
          "type": "address"
        }
      ],
      "stateMutability": "view",
      "type": "function"
    },
    {
      "inputs": [],
      "name": "WETH",
      "outputs": [
        {
          "internalType": "address",
          "name": "",
          "type": "address"
        }
      ],
      "stateMutability": "view",
      "type": "function"
    }
  ],
  "bytecode": {
    "object": "0x60c8610039600b82828239805160001a60731461002c57634e487b7160e01b600052600060045260246000fd5b30600052607381538281f3fe7300000000000000000000000000000000000000003014608060405260043610603d5760003560e01c806389a30271146042578063ad5c4648146078575b600080fd5b605c73ff970a61a04b1ca14834a43f5de4533ebddb5cc881565b6040516001600160a01b03909116815260200160405180910390f35b605c7382af49447d8a07e3bd95bd0d56f35241523fbab18156fea26469706673582212206bb260629d7a914ec449d74c55f36ac2c1387a884973dc7ca31ebe8b9c4102bb64736f6c63430008110033",
    "linkReferences": {}
  },
  "methodIdentifiers": {
    "USDC()": "89a30271",
    "WETH()": "ad5c4648"
  },
  "id": 44
}