{
  "abi": [
    {
      "inputs": [],
      "name": "positionRouter",
      "outputs": [
        {
          "internalType": "address",
          "name": "",
          "type": "address"
        }
      ],
      "stateMutability": "view",
      "type": "function"
    },
    {
      "inputs": [],
      "name": "router",
      "outputs": [
        {
          "internalType": "address",
          "name": "",
          "type": "address"
        }
      ],
      "stateMutability": "view",
      "type": "function"
    }
  ],
  "bytecode": {
    "object": "0x60c8610039600b82828239805160001a60731461002c57634e487b7160e01b600052600060045260246000fd5b30600052607381538281f3fe7300000000000000000000000000000000000000003014608060405260043610603d5760003560e01c806361ef161f146042578063f887ea40146078575b600080fd5b605c73b87a436b93ffe9d75c5cfa7bacfff96430b0986881565b6040516001600160a01b03909116815260200160405180910390f35b605c73abbc5f99639c9b6bcb58544ddf04efa6802f40648156fea26469706673582212209685b0f6ffa6a37f21b3f3bca2d0c105369a4bb6b5102f8a7a084e37392e332764736f6c63430008110033",
    "linkReferences": {}
  },
  "methodIdentifiers": {
    "positionRouter()": "61ef161f",
    "router()": "f887ea40"
  },
  "id": 40
}