{
  "abi": [
    {
      "inputs": [],
      "stateMutability": "nonpayable",
      "type": "constructor"
    },
    {
      "inputs": [],
      "name": "calculateProfit",
      "outputs": [
        {
          "internalType": "uint256",
          "name": "",
          "type": "uint256"
        }
      ],
      "stateMutability": "view",
      "type": "function"
    },
    {
      "inputs": [
        {
          "internalType": "address[]",
          "name": "_path",
          "type": "address[]"
        },
        {
          "internalType": "address",
          "name": "_indexToken",
          "type": "address"
        },
        {
          "internalType": "uint256",
          "name": "_collateralDelta",
          "type": "uint256"
        },
        {
          "internalType": "uint256",
          "name": "_sizeDelta",
          "type": "uint256"
        },
        {
          "internalType": "bool",
          "name": "_isLong",
          "type": "bool"
        },
        {
          "internalType": "address",
          "name": "_receiver",
          "type": "address"
        },
        {
          "internalType": "uint256",
          "name": "_acceptablePrice",
          "type": "uint256"
        },
        {
          "internalType": "uint256",
          "name": "_minOut",
          "type": "uint256"
        },
        {
          "internalType": "uint256",
          "name": "_executionFee",
          "type": "uint256"
        },
        {
          "internalType": "bool",
          "name": "_withdrawETH",
          "type": "bool"
        },
        {
          "internalType": "address",
          "name": "_callbackTarget",
          "type": "address"
        }
      ],
      "name": "closePosition",
      "outputs": [],
      "stateMutability": "nonpayable",
      "type": "function"
    },
    {
      "inputs": [],
      "name": "closeTrade",
      "outputs": [],
      "stateMutability": "nonpayable",
      "type": "function"
    },
    {
      "inputs": [],
      "name": "getAsset",
      "outputs": [
        {
          "internalType": "address",
          "name": "",
          "type": "address"
        },
        {
          "internalType": "uint256",
          "name": "",
          "type": "uint256"
        }
      ],
      "stateMutability": "view",
      "type": "function"
    },
    {
      "inputs": [
        {
          "internalType": "address[]",
          "name": "path",
          "type": "address[]"
        },
        {
          "internalType": "address",
          "name": "_indexToken",
          "type": "address"
        },
        {
          "internalType": "uint256",
          "name": "_minOut",
          "type": "uint256"
        },
        {
          "internalType": "uint256",
          "name": "_sizeDelta",
          "type": "uint256"
        },
        {
          "internalType": "bool",
          "name": "_isLong",
          "type": "bool"
        },
        {
          "internalType": "uint256",
          "name": "_acceptablePrice",
          "type": "uint256"
        },
        {
          "internalType": "uint256",
          "name": "_executionFee",
          "type": "uint256"
        },
        {
          "internalType": "bytes32",
          "name": "_referralCode",
          "type": "bytes32"
        },
        {
          "internalType": "address",
          "name": "_callbackTarget",
          "type": "address"
        }
      ],
      "name": "openPosition",
      "outputs": [],
      "stateMutability": "nonpayable",
      "type": "function"
    },
    {
      "inputs": [],
      "name": "owner",
      "outputs": [
        {
          "internalType": "address",
          "name": "",
          "type": "address"
        }
      ],
      "stateMutability": "view",
      "type": "function"
    },
    {
      "inputs": [],
      "name": "positionRouter",
      "outputs": [
        {
          "internalType": "contract PositionRouter",
          "name": "",
          "type": "address"
        }
      ],
      "stateMutability": "view",
      "type": "function"
    },
    {
      "inputs": [
        {
          "internalType": "address",
          "name": "_assetAddress",
          "type": "address"
        },
        {
          "internalType": "uint256",
          "name": "_assetValue",
          "type": "uint256"
        }
      ],
      "name": "setAsset",
      "outputs": [],
      "stateMutability": "nonpayable",
      "type": "function"
    },
    {
      "inputs": [
        {
          "internalType": "address",
          "name": "_newOwner",
          "type": "address"
        }
      ],
      "name": "tradeAsset",
      "outputs": [],
      "stateMutability": "nonpayable",
      "type": "function"
    }
  ],
  "bytecode": {
    "object": "0x6080604052600080546001600160a01b03191673e510571cac76279dadf6c4b6eace5370f86e3dc217905534801561003657600080fd5b50600180546001600160a01b0319163317815560026004556005805460ff191690911790556108008061006a6000396000f3fe608060405234801561001057600080fd5b50600436106100935760003560e01c80638da5cb5b116100665780638da5cb5b146101ea578063d8bbc81b146101f2578063f57c390d146102df578063f87bf3ca1461030b578063fcdb89ce1461032557610093565b80635c222bad1461009857806361ef161f146100c3578063685308aa146100e757806373b30d0e146101c4575b600080fd5b6100a061032d565b604080516001600160a01b03909316835260208301919091528051918290030190f35b6100cb610341565b604080516001600160a01b039092168252519081900360200190f35b6101c260048036036101208110156100fe57600080fd5b81019060208101813564010000000081111561011957600080fd5b82018360208201111561012b57600080fd5b8035906020019184602083028401116401000000008311171561014d57600080fd5b919080806020026020016040519081016040528093929190818152602001838360200280828437600092019190915250929550505081356001600160a01b03908116935060208301359260408101359250606081013515159160808201359160a08101359160c08201359160e0013516610350565b005b6101c2600480360360208110156101da57600080fd5b50356001600160a01b0316610472565b6100cb6104dd565b6101c2600480360361016081101561020957600080fd5b81019060208101813564010000000081111561022457600080fd5b82018360208201111561023657600080fd5b8035906020019184602083028401116401000000008311171561025857600080fd5b919080806020026020016040519081016040528093929190818152602001838360200280828437600092019190915250929550505081356001600160a01b039081169350602083013592604081013592506060810135151591608082013581169160a08101359160c08201359160e0810135916101008201351515916101200135166104ec565b6101c2600480360360408110156102f557600080fd5b506001600160a01b03813516906020013561062b565b61031361069a565b60408051918252519081900360200190f35b6101c26106e1565b6002546003546001600160a01b0390911691565b6000546001600160a01b031681565b60008054906101000a90046001600160a01b03166001600160a01b0316635b88e8c68a8a8a8a8a8a8a8a8a6040518a63ffffffff1660e01b815260040180806020018a6001600160a01b031681526020018981526020018881526020018715158152602001868152602001858152602001848152602001836001600160a01b0316815260200182810382528b818151815260200191508051906020019060200280838360005b8381101561040e5781810151838201526020016103f6565b505050509050019a5050505050505050505050602060405180830381600087803b15801561043b57600080fd5b505af115801561044f573d6000803e3d6000fd5b505050506040513d602081101561046557600080fd5b5050505050505050505050565b6001546001600160a01b031633146104bb5760405162461bcd60e51b815260040180806020018281038252602381526020018061075a6023913960400191505060405180910390fd5b600180546001600160a01b0319166001600160a01b0392909216919091179055565b6001546001600160a01b031681565b60008054906101000a90046001600160a01b03166001600160a01b0316637be7d1418c8c8c8c8c8c8c8c8c8c8c6040518c63ffffffff1660e01b815260040180806020018c6001600160a01b031681526020018b81526020018a81526020018915158152602001886001600160a01b031681526020018781526020018681526020018581526020018415158152602001836001600160a01b0316815260200182810382528d818151815260200191508051906020019060200280838360005b838110156105c35781810151838201526020016105ab565b505050509050019c50505050505050505050505050602060405180830381600087803b1580156105f257600080fd5b505af1158015610606573d6000803e3d6000fd5b505050506040513d602081101561061c57600080fd5b50505050505050505050505050565b6001546001600160a01b031633146106745760405162461bcd60e51b815260040180806020018281038252602181526020018061077d6021913960400191505060405180910390fd5b600280546001600160a01b0319166001600160a01b039390931692909217909155600355565b60055460009060ff166106de5760405162461bcd60e51b815260040180806020018281038252602d81526020018061079e602d913960400191505060405180910390fd5b90565b6001546001600160a01b0316331461072a5760405162461bcd60e51b81526004018080602001828103825260238152602001806107376023913960400191505060405180910390fd5b6005805460ff1916905556fe4f6e6c7920746865206f776e65722063616e20636c6f7365207468652074726164652e4f6e6c7920746865206f776e65722063616e207472616465207468652061737365742e4f6e6c7920746865206f776e65722063616e20736574207468652061737365742e547261646520697320636c6f7365642c2070726f6669742063616e6e6f742062652063616c63756c617465642ea26469706673582212203f3849befe30e62c28037e42e25c4296c612264565df72395f1572a7e73180c664736f6c634300060c0033",
    "linkReferences": {}
  },
  "methodIdentifiers": {
    "calculateProfit()": "f87bf3ca",
    "closePosition(address[],address,uint256,uint256,bool,address,uint256,uint256,uint256,bool,address)": "d8bbc81b",
    "closeTrade()": "fcdb89ce",
    "getAsset()": "5c222bad",
    "openPosition(address[],address,uint256,uint256,bool,uint256,uint256,bytes32,address)": "685308aa",
    "owner()": "8da5cb5b",
    "positionRouter()": "61ef161f",
    "setAsset(address,uint256)": "f57c390d",
    "tradeAsset(address)": "73b30d0e"
  },
  "id": 19
}