{
  "abi": [
    {
      "inputs": [
        {
          "internalType": "address",
          "name": "_vault",
          "type": "address"
        },
        {
          "internalType": "address",
          "name": "_router",
          "type": "address"
        },
        {
          "internalType": "address",
          "name": "_shortsTracker",
          "type": "address"
        },
        {
          "internalType": "address",
          "name": "_weth",
          "type": "address"
        },
        {
          "internalType": "uint256",
          "name": "_depositFee",
          "type": "uint256"
        }
      ],
      "stateMutability": "nonpayable",
      "type": "constructor"
    },
    {
      "anonymous": false,
      "inputs": [
        {
          "indexed": false,
          "internalType": "address",
          "name": "account",
          "type": "address"
        },
        {
          "indexed": false,
          "internalType": "uint256",
          "name": "sizeDelta",
          "type": "uint256"
        },
        {
          "indexed": false,
          "internalType": "uint256",
          "name": "marginFeeBasisPoints",
          "type": "uint256"
        },
        {
          "indexed": false,
          "internalType": "bytes32",
          "name": "referralCode",
          "type": "bytes32"
        },
        {
          "indexed": false,
          "internalType": "address",
          "name": "referrer",
          "type": "address"
        }
      ],
      "name": "DecreasePositionReferral",
      "type": "event"
    },
    {
      "anonymous": false,
      "inputs": [
        {
          "indexed": false,
          "internalType": "address",
          "name": "account",
          "type": "address"
        },
        {
          "indexed": false,
          "internalType": "uint256",
          "name": "sizeDelta",
          "type": "uint256"
        },
        {
          "indexed": false,
          "internalType": "uint256",
          "name": "marginFeeBasisPoints",
          "type": "uint256"
        },
        {
          "indexed": false,
          "internalType": "bytes32",
          "name": "referralCode",
          "type": "bytes32"
        },
        {
          "indexed": false,
          "internalType": "address",
          "name": "referrer",
          "type": "address"
        }
      ],
      "name": "IncreasePositionReferral",
      "type": "event"
    },
    {
      "anonymous": false,
      "inputs": [
        {
          "indexed": false,
          "internalType": "address",
          "name": "admin",
          "type": "address"
        }
      ],
      "name": "SetAdmin",
      "type": "event"
    },
    {
      "anonymous": false,
      "inputs": [
        {
          "indexed": false,
          "internalType": "uint256",
          "name": "depositFee",
          "type": "uint256"
        }
      ],
      "name": "SetDepositFee",
      "type": "event"
    },
    {
      "anonymous": false,
      "inputs": [
        {
          "indexed": false,
          "internalType": "uint256",
          "name": "increasePositionBufferBps",
          "type": "uint256"
        }
      ],
      "name": "SetIncreasePositionBufferBps",
      "type": "event"
    },
    {
      "anonymous": false,
      "inputs": [
        {
          "indexed": false,
          "internalType": "address[]",
          "name": "tokens",
          "type": "address[]"
        },
        {
          "indexed": false,
          "internalType": "uint256[]",
          "name": "longSizes",
          "type": "uint256[]"
        },
        {
          "indexed": false,
          "internalType": "uint256[]",
          "name": "shortSizes",
          "type": "uint256[]"
        }
      ],
      "name": "SetMaxGlobalSizes",
      "type": "event"
    },
    {
      "anonymous": false,
      "inputs": [
        {
          "indexed": false,
          "internalType": "address",
          "name": "referralStorage",
          "type": "address"
        }
      ],
      "name": "SetReferralStorage",
      "type": "event"
    },
    {
      "anonymous": false,
      "inputs": [
        {
          "indexed": false,
          "internalType": "address",
          "name": "token",
          "type": "address"
        },
        {
          "indexed": false,
          "internalType": "address",
          "name": "receiver",
          "type": "address"
        },
        {
          "indexed": false,
          "internalType": "uint256",
          "name": "amount",
          "type": "uint256"
        }
      ],
      "name": "WithdrawFees",
      "type": "event"
    },
    {
      "inputs": [],
      "name": "BASIS_POINTS_DIVISOR",
      "outputs": [
        {
          "internalType": "uint256",
          "name": "",
          "type": "uint256"
        }
      ],
      "stateMutability": "view",
      "type": "function"
    },
    {
      "inputs": [],
      "name": "admin",
      "outputs": [
        {
          "internalType": "address",
          "name": "",
          "type": "address"
        }
      ],
      "stateMutability": "view",
      "type": "function"
    },
    {
      "inputs": [
        {
          "internalType": "address",
          "name": "_token",
          "type": "address"
        },
        {
          "internalType": "address",
          "name": "_spender",
          "type": "address"
        },
        {
          "internalType": "uint256",
          "name": "_amount",
          "type": "uint256"
        }
      ],
      "name": "approve",
      "outputs": [],
      "stateMutability": "nonpayable",
      "type": "function"
    },
    {
      "inputs": [],
      "name": "depositFee",
      "outputs": [
        {
          "internalType": "uint256",
          "name": "",
          "type": "uint256"
        }
      ],
      "stateMutability": "view",
      "type": "function"
    },
    {
      "inputs": [
        {
          "internalType": "address",
          "name": "",
          "type": "address"
        }
      ],
      "name": "feeReserves",
      "outputs": [
        {
          "internalType": "uint256",
          "name": "",
          "type": "uint256"
        }
      ],
      "stateMutability": "view",
      "type": "function"
    },
    {
      "inputs": [],
      "name": "gov",
      "outputs": [
        {
          "internalType": "address",
          "name": "",
          "type": "address"
        }
      ],
      "stateMutability": "view",
      "type": "function"
    },
    {
      "inputs": [],
      "name": "increasePositionBufferBps",
      "outputs": [
        {
          "internalType": "uint256",
          "name": "",
          "type": "uint256"
        }
      ],
      "stateMutability": "view",
      "type": "function"
    },
    {
      "inputs": [
        {
          "internalType": "address",
          "name": "",
          "type": "address"
        }
      ],
      "name": "maxGlobalLongSizes",
      "outputs": [
        {
          "internalType": "uint256",
          "name": "",
          "type": "uint256"
        }
      ],
      "stateMutability": "view",
      "type": "function"
    },
    {
      "inputs": [
        {
          "internalType": "address",
          "name": "",
          "type": "address"
        }
      ],
      "name": "maxGlobalShortSizes",
      "outputs": [
        {
          "internalType": "uint256",
          "name": "",
          "type": "uint256"
        }
      ],
      "stateMutability": "view",
      "type": "function"
    },
    {
      "inputs": [],
      "name": "referralStorage",
      "outputs": [
        {
          "internalType": "address",
          "name": "",
          "type": "address"
        }
      ],
      "stateMutability": "view",
      "type": "function"
    },
    {
      "inputs": [],
      "name": "router",
      "outputs": [
        {
          "internalType": "address",
          "name": "",
          "type": "address"
        }
      ],
      "stateMutability": "view",
      "type": "function"
    },
    {
      "inputs": [
        {
          "internalType": "address payable",
          "name": "_receiver",
          "type": "address"
        },
        {
          "internalType": "uint256",
          "name": "_amount",
          "type": "uint256"
        }
      ],
      "name": "sendValue",
      "outputs": [],
      "stateMutability": "nonpayable",
      "type": "function"
    },
    {
      "inputs": [
        {
          "internalType": "address",
          "name": "_admin",
          "type": "address"
        }
      ],
      "name": "setAdmin",
      "outputs": [],
      "stateMutability": "nonpayable",
      "type": "function"
    },
    {
      "inputs": [
        {
          "internalType": "uint256",
          "name": "_depositFee",
          "type": "uint256"
        }
      ],
      "name": "setDepositFee",
      "outputs": [],
      "stateMutability": "nonpayable",
      "type": "function"
    },
    {
      "inputs": [
        {
          "internalType": "address",
          "name": "_gov",
          "type": "address"
        }
      ],
      "name": "setGov",
      "outputs": [],
      "stateMutability": "nonpayable",
      "type": "function"
    },
    {
      "inputs": [
        {
          "internalType": "uint256",
          "name": "_increasePositionBufferBps",
          "type": "uint256"
        }
      ],
      "name": "setIncreasePositionBufferBps",
      "outputs": [],
      "stateMutability": "nonpayable",
      "type": "function"
    },
    {
      "inputs": [
        {
          "internalType": "address[]",
          "name": "_tokens",
          "type": "address[]"
        },
        {
          "internalType": "uint256[]",
          "name": "_longSizes",
          "type": "uint256[]"
        },
        {
          "internalType": "uint256[]",
          "name": "_shortSizes",
          "type": "uint256[]"
        }
      ],
      "name": "setMaxGlobalSizes",
      "outputs": [],
      "stateMutability": "nonpayable",
      "type": "function"
    },
    {
      "inputs": [
        {
          "internalType": "address",
          "name": "_referralStorage",
          "type": "address"
        }
      ],
      "name": "setReferralStorage",
      "outputs": [],
      "stateMutability": "nonpayable",
      "type": "function"
    },
    {
      "inputs": [],
      "name": "shortsTracker",
      "outputs": [
        {
          "internalType": "address",
          "name": "",
          "type": "address"
        }
      ],
      "stateMutability": "view",
      "type": "function"
    },
    {
      "inputs": [],
      "name": "vault",
      "outputs": [
        {
          "internalType": "address",
          "name": "",
          "type": "address"
        }
      ],
      "stateMutability": "view",
      "type": "function"
    },
    {
      "inputs": [],
      "name": "weth",
      "outputs": [
        {
          "internalType": "address",
          "name": "",
          "type": "address"
        }
      ],
      "stateMutability": "view",
      "type": "function"
    },
    {
      "inputs": [
        {
          "internalType": "address",
          "name": "_token",
          "type": "address"
        },
        {
          "internalType": "address",
          "name": "_receiver",
          "type": "address"
        }
      ],
      "name": "withdrawFees",
      "outputs": [],
      "stateMutability": "nonpayable",
      "type": "function"
    },
    {
      "stateMutability": "payable",
      "type": "receive"
    }
  ],
  "bytecode": {
    "object": "0x6080604052606460085534801561001557600080fd5b50604051611403380380611403833981810160405260a081101561003857600080fd5b508051602082015160408301516060840151608090940151600160008181558154336001600160a01b031991821681179093556003805482166001600160a01b039889161790556005805482169688169690961790955560068054861697871697909717909655600791909155600480548416949092169390931790556002805490911690911790556113329081906100d190396000f3fe6080604052600436106101385760003560e01c8063704b6c02116100ab578063e1f21c671161006f578063e1f21c671461040d578063ef12c67e14610450578063f255527814610608578063f851a44014610643578063f887ea4014610658578063fbfa77cf1461066d57610188565b8063704b6c021461032c5780639698d25a1461035f57806398d1e03a14610392578063ae4d7f9a146103a7578063cfad57a2146103da57610188565b8063233bfe3b116100fd578063233bfe3b1461026057806324a084df1461028a5780633fc8cef3146102c3578063490ae210146102d8578063657bc5d01461030257806367a527931461031757610188565b80626cc35e1461018d5780631045c74e146101be578063126082cf1461020357806312d43a51146102185780631ce9cb8f1461022d57610188565b36610188576006546001600160a01b031633146101865760405162461bcd60e51b81526004018080602001828103825260238152602001806112b06023913960400191505060405180910390fd5b005b600080fd5b34801561019957600080fd5b506101a2610682565b604080516001600160a01b039092168252519081900360200190f35b3480156101ca57600080fd5b506101f1600480360360208110156101e157600080fd5b50356001600160a01b0316610691565b60408051918252519081900360200190f35b34801561020f57600080fd5b506101f16106a3565b34801561022457600080fd5b506101a26106a9565b34801561023957600080fd5b506101f16004803603602081101561025057600080fd5b50356001600160a01b03166106b8565b34801561026c57600080fd5b506101866004803603602081101561028357600080fd5b50356106ca565b34801561029657600080fd5b50610186600480360360408110156102ad57600080fd5b506001600160a01b038135169060200135610752565b3480156102cf57600080fd5b506101a26107c0565b3480156102e457600080fd5b50610186600480360360208110156102fb57600080fd5b50356107cf565b34801561030e57600080fd5b506101a2610857565b34801561032357600080fd5b506101f1610866565b34801561033857600080fd5b506101866004803603602081101561034f57600080fd5b50356001600160a01b031661086c565b34801561036b57600080fd5b506101f16004803603602081101561038257600080fd5b50356001600160a01b0316610917565b34801561039e57600080fd5b506101f1610929565b3480156103b357600080fd5b50610186600480360360208110156103ca57600080fd5b50356001600160a01b031661092f565b3480156103e657600080fd5b50610186600480360360208110156103fd57600080fd5b50356001600160a01b03166109d0565b34801561041957600080fd5b506101866004803603606081101561043057600080fd5b506001600160a01b03813581169160208101359091169060400135610a49565b34801561045c57600080fd5b506101866004803603606081101561047357600080fd5b81019060208101813564010000000081111561048e57600080fd5b8201836020820111156104a057600080fd5b803590602001918460208302840111640100000000831117156104c257600080fd5b919080806020026020016040519081016040528093929190818152602001838360200280828437600092019190915250929594936020810193503591505064010000000081111561051257600080fd5b82018360208201111561052457600080fd5b8035906020019184602083028401116401000000008311171561054657600080fd5b919080806020026020016040519081016040528093929190818152602001838360200280828437600092019190915250929594936020810193503591505064010000000081111561059657600080fd5b8201836020820111156105a857600080fd5b803590602001918460208302840111640100000000831117156105ca57600080fd5b919080806020026020016040519081016040528093929190818152602001838360200280828437600092019190915250929550610b28945050505050565b34801561061457600080fd5b506101866004803603604081101561062b57600080fd5b506001600160a01b0381358116916020013516610d17565b34801561064f57600080fd5b506101a2610dfb565b34801561066457600080fd5b506101a2610e0a565b34801561067957600080fd5b506101a2610e19565b6009546001600160a01b031681565b600b6020526000908152604090205481565b61271081565b6001546001600160a01b031681565b600a6020526000908152604090205481565b6002546001600160a01b03163314610717576040805162461bcd60e51b815260206004820152601e6024820152600080516020611290833981519152604482015290519081900360640190fd5b60088190556040805182815290517f21167d0d4661af93817ebce920f18986eed3d75d5e1c03f2aed05efcbafbc4529181900360200190a150565b6001546001600160a01b031633146107a9576040805162461bcd60e51b815260206004820152601560248201527423b7bb32b93730b136329d103337b93134b23232b760591b604482015290519081900360640190fd5b6107bc6001600160a01b03831682610e28565b5050565b6006546001600160a01b031681565b6002546001600160a01b0316331461081c576040805162461bcd60e51b815260206004820152601e6024820152600080516020611290833981519152604482015290519081900360640190fd5b60078190556040805182815290517f974fd3c1fcb4653dfc4fb740c4c692cd212d55c28f163f310128cb64d83006759181900360200190a150565b6004546001600160a01b031681565b60075481565b6001546001600160a01b031633146108c3576040805162461bcd60e51b815260206004820152601560248201527423b7bb32b93730b136329d103337b93134b23232b760591b604482015290519081900360640190fd5b600280546001600160a01b0383166001600160a01b0319909116811790915560408051918252517f5a272403b402d892977df56625f4164ccaf70ca3863991c43ecfe76a6905b0a19181900360200190a150565b600c6020526000908152604090205481565b60085481565b6002546001600160a01b0316331461097c576040805162461bcd60e51b815260206004820152601e6024820152600080516020611290833981519152604482015290519081900360640190fd5b600980546001600160a01b0383166001600160a01b0319909116811790915560408051918252517f828abcccea18192c21d645e575652c49e20b986dab777906fc473d056b01b6a89181900360200190a150565b6001546001600160a01b03163314610a27576040805162461bcd60e51b815260206004820152601560248201527423b7bb32b93730b136329d103337b93134b23232b760591b604482015290519081900360640190fd5b600180546001600160a01b0319166001600160a01b0392909216919091179055565b6001546001600160a01b03163314610aa0576040805162461bcd60e51b815260206004820152601560248201527423b7bb32b93730b136329d103337b93134b23232b760591b604482015290519081900360640190fd5b826001600160a01b031663095ea7b383836040518363ffffffff1660e01b815260040180836001600160a01b0316815260200182815260200192505050602060405180830381600087803b158015610af757600080fd5b505af1158015610b0b573d6000803e3d6000fd5b505050506040513d6020811015610b2157600080fd5b5050505050565b6002546001600160a01b03163314610b75576040805162461bcd60e51b815260206004820152601e6024820152600080516020611290833981519152604482015290519081900360640190fd5b60005b8351811015610c10576000848281518110610b8f57fe5b60200260200101519050838281518110610ba557fe5b6020026020010151600b6000836001600160a01b03166001600160a01b0316815260200190815260200160002081905550828281518110610be257fe5b6020908102919091018101516001600160a01b039092166000908152600c9091526040902055600101610b78565b507fae32d569b058895b9620d6552b09aaffedc9a6f396be4d595a224ad09f8b213983838360405180806020018060200180602001848103845287818151815260200191508051906020019060200280838360005b83811015610c7d578181015183820152602001610c65565b50505050905001848103835286818151815260200191508051906020019060200280838360005b83811015610cbc578181015183820152602001610ca4565b50505050905001848103825285818151815260200191508051906020019060200280838360005b83811015610cfb578181015183820152602001610ce3565b50505050905001965050505050505060405180910390a1505050565b6002546001600160a01b03163314610d64576040805162461bcd60e51b815260206004820152601e6024820152600080516020611290833981519152604482015290519081900360640190fd5b6001600160a01b0382166000908152600a602052604090205480610d8857506107bc565b6001600160a01b0383166000818152600a6020526040812055610dac908383610f12565b604080516001600160a01b0380861682528416602082015280820183905290517f4f1b51dd7a2fcb861aa2670f668be66835c4ee12b4bbbf037e4d0018f39819e49181900360600190a1505050565b6002546001600160a01b031681565b6005546001600160a01b031681565b6003546001600160a01b031681565b80471015610e7d576040805162461bcd60e51b815260206004820152601d60248201527f416464726573733a20696e73756666696369656e742062616c616e6365000000604482015290519081900360640190fd5b6040516000906001600160a01b0384169083908381818185875af1925050503d8060008114610ec8576040519150601f19603f3d011682016040523d82523d6000602084013e610ecd565b606091505b5050905080610f0d5760405162461bcd60e51b815260040180806020018281038252603a815260200180611230603a913960400191505060405180910390fd5b505050565b604080516001600160a01b038416602482015260448082018490528251808303909101815260649091019091526020810180516001600160e01b031663a9059cbb60e01b179052610f0d9084906060610fb4826040518060400160405280602081526020017f5361666545524332303a206c6f772d6c6576656c2063616c6c206661696c6564815250856001600160a01b03166110109092919063ffffffff16565b805190915015610f0d57808060200190516020811015610fd357600080fd5b5051610f0d5760405162461bcd60e51b815260040180806020018281038252602a8152602001806112d3602a913960400191505060405180910390fd5b606061101f8484600085611029565b90505b9392505050565b60608247101561106a5760405162461bcd60e51b815260040180806020018281038252602681526020018061126a6026913960400191505060405180910390fd5b61107385611185565b6110c4576040805162461bcd60e51b815260206004820152601d60248201527f416464726573733a2063616c6c20746f206e6f6e2d636f6e7472616374000000604482015290519081900360640190fd5b60006060866001600160a01b031685876040518082805190602001908083835b602083106111035780518252601f1990920191602091820191016110e4565b6001836020036101000a03801982511681845116808217855250505050505090500191505060006040518083038185875af1925050503d8060008114611165576040519150601f19603f3d011682016040523d82523d6000602084013e61116a565b606091505b509150915061117a82828661118b565b979650505050505050565b3b151590565b6060831561119a575081611022565b8251156111aa5782518084602001fd5b8160405162461bcd60e51b81526004018080602001828103825283818151815260200191508051906020019080838360005b838110156111f45781810151838201526020016111dc565b50505050905090810190601f1680156112215780820380516001836020036101000a031916815260200191505b509250505060405180910390fdfe416464726573733a20756e61626c6520746f2073656e642076616c75652c20726563697069656e74206d61792068617665207265766572746564416464726573733a20696e73756666696369656e742062616c616e636520666f722063616c6c42617365506f736974696f6e4d616e616765723a20666f7262696464656e000042617365506f736974696f6e4d616e616765723a20696e76616c69642073656e6465725361666545524332303a204552433230206f7065726174696f6e20646964206e6f742073756363656564a26469706673582212204715016bdd3ae81b1520d60f6c385fe7ab47e2d3d4ba847c610884d53564384b64736f6c634300060c0033",
    "linkReferences": {}
  },
  "methodIdentifiers": {
    "BASIS_POINTS_DIVISOR()": "126082cf",
    "admin()": "f851a440",
    "approve(address,address,uint256)": "e1f21c67",
    "depositFee()": "67a52793",
    "feeReserves(address)": "1ce9cb8f",
    "gov()": "12d43a51",
    "increasePositionBufferBps()": "98d1e03a",
    "maxGlobalLongSizes(address)": "1045c74e",
    "maxGlobalShortSizes(address)": "9698d25a",
    "referralStorage()": "006cc35e",
    "router()": "f887ea40",
    "sendValue(address,uint256)": "24a084df",
    "setAdmin(address)": "704b6c02",
    "setDepositFee(uint256)": "490ae210",
    "setGov(address)": "cfad57a2",
    "setIncreasePositionBufferBps(uint256)": "233bfe3b",
    "setMaxGlobalSizes(address[],uint256[],uint256[])": "ef12c67e",
    "setReferralStorage(address)": "ae4d7f9a",
    "shortsTracker()": "657bc5d0",
    "vault()": "fbfa77cf",
    "weth()": "3fc8cef3",
    "withdrawFees(address,address)": "f2555278"
  },
  "id": 1
}