{
  "abi": [
    {
      "inputs": [],
      "stateMutability": "nonpayable",
      "type": "constructor"
    },
    {
      "anonymous": false,
      "inputs": [
        {
          "indexed": false,
          "internalType": "address",
          "name": "previousAdmin",
          "type": "address"
        },
        {
          "indexed": false,
          "internalType": "address",
          "name": "newAdmin",
          "type": "address"
        }
      ],
      "name": "AdminChanged",
      "type": "event"
    },
    {
      "anonymous": false,
      "inputs": [
        {
          "indexed": true,
          "internalType": "address",
          "name": "beacon",
          "type": "address"
        }
      ],
      "name": "BeaconUpgraded",
      "type": "event"
    },
    {
      "anonymous": false,
      "inputs": [
        {
          "indexed": false,
          "internalType": "uint8",
          "name": "version",
          "type": "uint8"
        }
      ],
      "name": "Initialized",
      "type": "event"
    },
    {
      "anonymous": false,
      "inputs": [
        {
          "indexed": true,
          "internalType": "address",
          "name": "previousOwner",
          "type": "address"
        },
        {
          "indexed": true,
          "internalType": "address",
          "name": "newOwner",
          "type": "address"
        }
      ],
      "name": "OwnershipTransferred",
      "type": "event"
    },
    {
      "anonymous": false,
      "inputs": [
        {
          "indexed": true,
          "internalType": "address",
          "name": "implementation",
          "type": "address"
        }
      ],
      "name": "Upgraded",
      "type": "event"
    },
    {
      "inputs": [],
      "name": "WETH",
      "outputs": [
        {
          "internalType": "address",
          "name": "",
          "type": "address"
        }
      ],
      "stateMutability": "view",
      "type": "function"
    },
    {
      "inputs": [],
      "name": "creator",
      "outputs": [
        {
          "internalType": "address",
          "name": "",
          "type": "address"
        }
      ],
      "stateMutability": "view",
      "type": "function"
    },
    {
      "inputs": [],
      "name": "decrement",
      "outputs": [],
      "stateMutability": "nonpayable",
      "type": "function"
    },
    {
      "inputs": [],
      "name": "getController",
      "outputs": [
        {
          "internalType": "address",
          "name": "",
          "type": "address"
        }
      ],
      "stateMutability": "view",
      "type": "function"
    },
    {
      "inputs": [
        {
          "internalType": "uint256",
          "name": "_number",
          "type": "uint256"
        },
        {
          "internalType": "address",
          "name": "_creator",
          "type": "address"
        }
      ],
      "name": "initialize",
      "outputs": [],
      "stateMutability": "nonpayable",
      "type": "function"
    },
    {
      "inputs": [],
      "name": "number",
      "outputs": [
        {
          "internalType": "uint256",
          "name": "",
          "type": "uint256"
        }
      ],
      "stateMutability": "view",
      "type": "function"
    },
    {
      "inputs": [],
      "name": "owner",
      "outputs": [
        {
          "internalType": "address",
          "name": "",
          "type": "address"
        }
      ],
      "stateMutability": "view",
      "type": "function"
    },
    {
      "inputs": [],
      "name": "positionRouter",
      "outputs": [
        {
          "internalType": "contract IPositionRouter",
          "name": "",
          "type": "address"
        }
      ],
      "stateMutability": "view",
      "type": "function"
    },
    {
      "inputs": [],
      "name": "proxiableUUID",
      "outputs": [
        {
          "internalType": "bytes32",
          "name": "",
          "type": "bytes32"
        }
      ],
      "stateMutability": "view",
      "type": "function"
    },
    {
      "inputs": [],
      "name": "renounceOwnership",
      "outputs": [],
      "stateMutability": "nonpayable",
      "type": "function"
    },
    {
      "inputs": [],
      "name": "router",
      "outputs": [
        {
          "internalType": "contract IRouter",
          "name": "",
          "type": "address"
        }
      ],
      "stateMutability": "view",
      "type": "function"
    },
    {
      "inputs": [
        {
          "internalType": "address",
          "name": "newOwner",
          "type": "address"
        }
      ],
      "name": "transferOwnership",
      "outputs": [],
      "stateMutability": "nonpayable",
      "type": "function"
    },
    {
      "inputs": [
        {
          "internalType": "address",
          "name": "newImplementation",
          "type": "address"
        }
      ],
      "name": "upgradeTo",
      "outputs": [],
      "stateMutability": "nonpayable",
      "type": "function"
    },
    {
      "inputs": [
        {
          "internalType": "address",
          "name": "newImplementation",
          "type": "address"
        },
        {
          "internalType": "bytes",
          "name": "data",
          "type": "bytes"
        }
      ],
      "name": "upgradeToAndCall",
      "outputs": [],
      "stateMutability": "payable",
      "type": "function"
    }
  ],
  "bytecode": {
    "object": "0x60a060405230608052606680546001600160a01b03199081167382af49447d8a07e3bd95bd0d56f35241523fbab11790915560678054821673b87a436b93ffe9d75c5cfa7bacfff96430b098681790556068805490911673abbc5f99639c9b6bcb58544ddf04efa6802f406417905534801561007a57600080fd5b50610083610088565b610155565b600154600160a81b900460ff16156100f65760405162461bcd60e51b815260206004820152602760248201527f496e697469616c697a61626c653a20636f6e747261637420697320696e697469604482015266616c697a696e6760c81b606482015260840160405180910390fd5b60015460ff600160a01b90910481161015610153576001805460ff60a01b191660ff60a01b17905560405160ff81527f7f26b83ff96e1f2b6a682f133852f6798a09c465da95921460cefb38474024989060200160405180910390a15b565b608051610fd361018c6000396000818161032501528181610365015281816104040152818161044401526104d70152610fd36000f3fe6080604052600436106100dd5760003560e01c8063715018a61161007f578063ad5c464811610059578063ad5c46481461020a578063da35a26f1461022a578063f2fde38b1461024a578063f887ea401461026a57600080fd5b8063715018a6146101c15780638381f58a146101d65780638da5cb5b146101ec57600080fd5b80633659cfe6116100bb5780633659cfe61461014b5780634f1ef2861461016b57806352d1902d1461017e57806361ef161f146101a157600080fd5b806302d05d3f146100e25780632baeceb71461011f5780633018205f14610136575b600080fd5b3480156100ee57600080fd5b50600154610102906001600160a01b031681565b6040516001600160a01b0390911681526020015b60405180910390f35b34801561012b57600080fd5b5061013461028a565b005b34801561014257600080fd5b50610102610302565b34801561015757600080fd5b50610134610166366004610ca3565b61031b565b610134610179366004610cd4565b6103fa565b34801561018a57600080fd5b506101936104ca565b604051908152602001610116565b3480156101ad57600080fd5b50606754610102906001600160a01b031681565b3480156101cd57600080fd5b5061013461057d565b3480156101e257600080fd5b5061019360005481565b3480156101f857600080fd5b506034546001600160a01b0316610102565b34801561021657600080fd5b50606654610102906001600160a01b031681565b34801561023657600080fd5b50610134610245366004610d96565b610591565b34801561025657600080fd5b50610134610265366004610ca3565b610739565b34801561027657600080fd5b50606854610102906001600160a01b031681565b60008054116102ec5760405162461bcd60e51b815260206004820152602360248201527f4c6f676963496d706c656d656e746174696f6e3a206e756d626572206973207a60448201526265726f60e81b60648201526084015b60405180910390fd5b6000805490806102fb83610dc2565b9190505550565b60006103166034546001600160a01b031690565b905090565b6001600160a01b037f00000000000000000000000000000000000000000000000000000000000000001630036103635760405162461bcd60e51b81526004016102e390610de7565b7f00000000000000000000000000000000000000000000000000000000000000006001600160a01b03166103ac600080516020610f57833981519152546001600160a01b031690565b6001600160a01b0316146103d25760405162461bcd60e51b81526004016102e390610e33565b6103db816107af565b604080516000808252602082019092526103f7918391906107b7565b50565b6001600160a01b037f00000000000000000000000000000000000000000000000000000000000000001630036104425760405162461bcd60e51b81526004016102e390610de7565b7f00000000000000000000000000000000000000000000000000000000000000006001600160a01b031661048b600080516020610f57833981519152546001600160a01b031690565b6001600160a01b0316146104b15760405162461bcd60e51b81526004016102e390610e33565b6104ba826107af565b6104c6828260016107b7565b5050565b6000306001600160a01b037f0000000000000000000000000000000000000000000000000000000000000000161461056a5760405162461bcd60e51b815260206004820152603860248201527f555550535570677261646561626c653a206d757374206e6f742062652063616c60448201527f6c6564207468726f7567682064656c656761746563616c6c000000000000000060648201526084016102e3565b50600080516020610f5783398151915290565b610585610922565b61058f600061097c565b565b600154600160a81b900460ff16158080156105b7575060018054600160a01b900460ff16105b806105d75750303b1580156105d7575060018054600160a01b900460ff16145b61063a5760405162461bcd60e51b815260206004820152602e60248201527f496e697469616c697a61626c653a20636f6e747261637420697320616c72656160448201526d191e481a5b9a5d1a585b1a5e995960921b60648201526084016102e3565b6001805460ff60a01b1916600160a01b1790558015610667576001805460ff60a81b1916600160a81b1790555b6000839055600180546001600160a01b0319166001600160a01b03848116919091179091556068546067546040516338c74dd960e01b815290831660048201529116906338c74dd990602401600060405180830381600087803b1580156106cd57600080fd5b505af11580156106e1573d6000803e3d6000fd5b505050506106ed6109ce565b8015610734576001805460ff60a81b191681556040519081527f7f26b83ff96e1f2b6a682f133852f6798a09c465da95921460cefb38474024989060200160405180910390a15b505050565b610741610922565b6001600160a01b0381166107a65760405162461bcd60e51b815260206004820152602660248201527f4f776e61626c653a206e6577206f776e657220697320746865207a65726f206160448201526564647265737360d01b60648201526084016102e3565b6103f78161097c565b6103f7610922565b7f4910fdfa16fed3260ed0e7147f7cc6da11a60208b5b9406d12a635614ffd91435460ff16156107ea57610734836109ff565b826001600160a01b03166352d1902d6040518163ffffffff1660e01b8152600401602060405180830381865afa925050508015610844575060408051601f3d908101601f1916820190925261084191810190610e7f565b60015b6108a75760405162461bcd60e51b815260206004820152602e60248201527f45524331393637557067726164653a206e657720696d706c656d656e7461746960448201526d6f6e206973206e6f74205555505360901b60648201526084016102e3565b600080516020610f5783398151915281146109165760405162461bcd60e51b815260206004820152602960248201527f45524331393637557067726164653a20756e737570706f727465642070726f786044820152681a58589b195555525160ba1b60648201526084016102e3565b50610734838383610a9b565b6034546001600160a01b0316331461058f5760405162461bcd60e51b815260206004820181905260248201527f4f776e61626c653a2063616c6c6572206973206e6f7420746865206f776e657260448201526064016102e3565b603480546001600160a01b038381166001600160a01b0319831681179093556040519116919082907f8be0079c531659141344cd1fd0a4f28419497f9722a3daafe3b4186f6b6457e090600090a35050565b600154600160a81b900460ff166109f75760405162461bcd60e51b81526004016102e390610e98565b61058f610ac6565b6001600160a01b0381163b610a6c5760405162461bcd60e51b815260206004820152602d60248201527f455243313936373a206e657720696d706c656d656e746174696f6e206973206e60448201526c1bdd08184818dbdb9d1c9858dd609a1b60648201526084016102e3565b600080516020610f5783398151915280546001600160a01b0319166001600160a01b0392909216919091179055565b610aa483610af8565b600082511180610ab15750805b1561073457610ac08383610b38565b50505050565b600154600160a81b900460ff16610aef5760405162461bcd60e51b81526004016102e390610e98565b61058f3361097c565b610b01816109ff565b6040516001600160a01b038216907fbc7cd75a20ee27fd9adebab32041f755214dbc6bffa90cc0225b39da2e5c2d3b90600090a250565b6060610b5d8383604051806060016040528060278152602001610f7760279139610b64565b9392505050565b6060600080856001600160a01b031685604051610b819190610f07565b600060405180830381855af49150503d8060008114610bbc576040519150601f19603f3d011682016040523d82523d6000602084013e610bc1565b606091505b5091509150610bd286838387610bdc565b9695505050505050565b60608315610c4b578251600003610c44576001600160a01b0385163b610c445760405162461bcd60e51b815260206004820152601d60248201527f416464726573733a2063616c6c20746f206e6f6e2d636f6e747261637400000060448201526064016102e3565b5081610c55565b610c558383610c5d565b949350505050565b815115610c6d5781518083602001fd5b8060405162461bcd60e51b81526004016102e39190610f23565b80356001600160a01b0381168114610c9e57600080fd5b919050565b600060208284031215610cb557600080fd5b610b5d82610c87565b634e487b7160e01b600052604160045260246000fd5b60008060408385031215610ce757600080fd5b610cf083610c87565b9150602083013567ffffffffffffffff80821115610d0d57600080fd5b818501915085601f830112610d2157600080fd5b813581811115610d3357610d33610cbe565b604051601f8201601f19908116603f01168101908382118183101715610d5b57610d5b610cbe565b81604052828152886020848701011115610d7457600080fd5b8260208601602083013760006020848301015280955050505050509250929050565b60008060408385031215610da957600080fd5b82359150610db960208401610c87565b90509250929050565b600081610ddf57634e487b7160e01b600052601160045260246000fd5b506000190190565b6020808252602c908201527f46756e6374696f6e206d7573742062652063616c6c6564207468726f7567682060408201526b19195b1959d85d1958d85b1b60a21b606082015260800190565b6020808252602c908201527f46756e6374696f6e206d7573742062652063616c6c6564207468726f7567682060408201526b6163746976652070726f787960a01b606082015260800190565b600060208284031215610e9157600080fd5b5051919050565b6020808252602b908201527f496e697469616c697a61626c653a20636f6e7472616374206973206e6f74206960408201526a6e697469616c697a696e6760a81b606082015260800190565b60005b83811015610efe578181015183820152602001610ee6565b50506000910152565b60008251610f19818460208701610ee3565b9190910192915050565b6020815260008251806020840152610f42816040850160208701610ee3565b601f01601f1916919091016040019291505056fe360894a13ba1a3210667c828492db98dca3e2076cc3735a920a3ca505d382bbc416464726573733a206c6f772d6c6576656c2064656c65676174652063616c6c206661696c6564a26469706673582212201910fc9a81f84e34f1cf11ea9c32034696339866bc38129de4ccd3c4793973ed64736f6c63430008110033",
    "linkReferences": {}
  },
  "methodIdentifiers": {
    "WETH()": "ad5c4648",
    "creator()": "02d05d3f",
    "decrement()": "2baeceb7",
    "getController()": "3018205f",
    "initialize(uint256,address)": "da35a26f",
    "number()": "8381f58a",
    "owner()": "8da5cb5b",
    "positionRouter()": "61ef161f",
    "proxiableUUID()": "52d1902d",
    "renounceOwnership()": "715018a6",
    "router()": "f887ea40",
    "transferOwnership(address)": "f2fde38b",
    "upgradeTo(address)": "3659cfe6",
    "upgradeToAndCall(address,bytes)": "4f1ef286"
  },
  "id": 43
}